:020000040000FA
:10000000203EC0000301083EC100062883010316FC
:100010008315102836083502031C5220B7005728D4
:1000200003010311C301C201410640060301031984
:100030005728083EB800B9014018B914B910400853
:10004000C2004109C000C00AB918292839182C2853
:100050003228391832282F28410843073228391509
:100060004008C307B918391439104218B914B91027
:10007000431803140310420C391903140310430CE2
:10008000380B24285728C201C3010301C106C0064A
:10009000031955284008C2070318C30A0314C10BEB
:0E00A0004B285728B709370A0800C301C201D0
:0200AE0000341C
:0200B00000341A
:02400E00FB3F76
:00000001FF
