:020000040000FA
:1000000020215D21D201D301D4013B30D50018302D
:10001000D600031135205508520203191528D20ABB
:1000200052087120CA308221092852087120CA3032
:100030008221D20103115508530203192528D30A3E
:1000400053087120C7308221092853087120C73016
:100050008221D3010311560854020319D601D60A8E
:1000600053087120C4308221092831309000C830F3
:100070008E0032308F000C140C100430C5000C1CA4
:0A0080003F280C10C50B3F280800B4
:04008A00003400340A
:1000C0000A30C0004908C1000330C8005030840025
:1000D0007F2043088000840A4208C100C80B6828BA
:1000E0000800C1000A30C0000230C800503084004F
:1000F0007F2043088000840A420880000800003006
:100100000311410403199C280030400403199F285F
:10011000C30103114108C20003010830C1000310EC
:10012000C20DC30D40084302031C99289728C30041
:0E0130004214C10B8F280800C301C201080051
:1002400083160313880106309F008901831203136C
:1002500030303A21A82130303A21A82130303A21DB
:10026000A82138303A210C303A2101303A210630A9
:100270003A210800880089100914A82109100800F3
:10028000880089140914A8210910080086303A2131
:1002900053210330C80052308400000840218403F9
:1002A000C80B4D2908000330C8005230840030309C
:1002B00080078403C80B5829080084303A2148304D
:1002C0004021483040213A3040214D3040214D30CE
:1002D00040213A3040215330402153304021C43036
:1002E0003A2130304021303040213A304021303006
:1002F0004021303040213A304021303040213030F0
:10030000402108003A218E210230C800513084007B
:10031000000840218403C80B882908000230C80067
:100320005030840030308007840AC80B93290800BD
:100330008313831203130800831303138316080027
:100340008317031783120800831703178316080007
:0A0350002030C000C00BAA290800ED
:02400E003A373F
:00000001FF
