:020000040000FA
:020000001028C6
:040002000034003492
:10002000C101C201C001472087014420870163202C
:1000300007156320071117284420880147208801ED
:1000400044200B3088002620880C23281730C0005D
:10005000C00B2B2808001C30C100C10B2D282828FC
:100060000D30C000C00B352808000E30C100C10B98
:10007000372832281630C000C00B3F280800143043
:10008000C100C10B41283C2883120313080003134D
:10009000831608000317831208000317831608004D
:1000A000C830D1000230D200D20B5428D10B5228D4
:1000B00008000B11C330472081004420EE3081003E
:1000C0000B1D602808000B11E230472081004420FE
:0A00D000F73081000B1D6A280800BC
:02400E003A373F
:00000001FF
