:020000040000FA
:100000009F20DC203B30D2007120CA3001213B30E0
:10001000D3007120C73001211730D4007120C430C3
:1000200001213B30D5001730D60003114720550879
:10003000520203192128D20A52087120CA30012124
:100040001528D20152087120CA3001210311550828
:10005000530203193128D30A53087120C7300121F4
:100060001528D30153087120C73001210311560808
:10007000540203194128D40A54087120C4300121C4
:100080001528D40154087120C430012115283130BD
:100090009000C8308E0032308F00831603130C148A
:1000A000831203130C100430C5000C1C55280C10CF
:0600B000C50B55280800F5
:0400B60000340034DE
:1000C0000A30C0004908C1000330C8005030840025
:1000D0007F2043088000840A4208C100C80B6828BA
:1000E0000800C1000A30C0000230C800503084004F
:1000F0007F2043088000840A420880000800003006
:100100000311410403199C280030400403199F285F
:10011000C30103114108C20003010830C1000310EC
:10012000C20DC30D40084302031C99289728C30041
:0E0130004214C10B8F280800C301C201080051
:02013E00831626
:100140000313880106309F008901831203133030A6
:10015000B92027213030B92027213030B92027217C
:100160003830B9200C30B9200130B9200630B92020
:100170000800880089100914272109100800880048
:10018000891409142721091008008630B920D220CB
:100190000330C800523084000008BF208403C80B1D
:1001A000CC2808000330C80052308400303080076B
:1001B0008403C80BD72808008430B9204830BF20FA
:1001C0004830BF203A30BF204D30BF204D30BF20D7
:1001D0003A30BF205330BF205330BF20C430B92045
:1001E0003030BF203030BF203A30BF203030BF2009
:1001F0003030BF203A30BF203030BF203030BF20F9
:100200000800B9200D210230C800513084000008D8
:10021000BF208403C80B072908000230C8005030F3
:10022000840030308007840AC80B12290800831329
:100230008312031308008313031383160800831724
:100240000317831208008317031783160800203052
:08025000C000C00B29290800C1
:02400E003A373F
:00000001FF
