:020000040000FA
:10000000003EC0000301203EC10006288301031604
:1000100083153A2836083502031C5620B7005B28A2
:100020000301C301C2010311C104C004031959280B
:10003000030103110310083EB800B9014018B914B8
:10004000B9104008C2004109C000C00A42182B285C
:1000500003182E2835288318352832284108C3076D
:10006000031035284008C3070314C30CC20CB80B97
:1000700026285B2803010311C10403195928C00471
:1000800003195B28C30103114108C2000301083EA4
:10009000C1000310C20DC30D40084302031C5328C6
:1000A0005128C3004214C10B49285B28B709370AFD
:0600B0000800C301C201BB
:0400B60000340034DE
:02400E00FB3F76
:00000001FF
